:020000040800F2
:10000000F004002001010008A51800084D140008A4
:10001000A11800086D010008F91A0008000000008E
:10002000000000000000000000000000591A000855
:100030007101000800000000D51800088D1A0008A2
:100040001B0100081B0100081B0100081B01000820
:100050001B0100081B0100081B0100081B01000810
:100060001B0100081B0100081B0100081B01000800
:100070001B0100081B0100081B0100081B010008F0
:100080001B0100081B0100081B0100081B010008E0
:100090001B0100081B0100081B0100081B010008D0
:1000A0001B0100081B0100081B0100081B010008C0
:1000B0001B0100081B0100081B0100081B010008B0
:1000C0001B0100081B0100081B0100081B010008A0
:1000D0001B0100081B0100081B0100081B01000890
:1000E0001B0100081B0100081B010008DFF80CD0F1
:1000F00000F02AF800480047D11D0008F004002055
:100100000648804706480047FEE7FEE7FEE7FEE7B1
:10011000FEE7FEE7FEE7FEE7FEE7FEE7F51A00086A
:10012000ED000008D2B201E000F8012B491EFBD21D
:1001300070470022F6E710B513460A4604461946F2
:10014000FFF7F0FF204610BD064C074D06E0E068C3
:1001500040F0010394E8070098471034AC42F6D30E
:10016000FFF7C8FFE01E0008001F0008FEE70000C0
:1001700070470000EFF3108072B600BFFEE700008A
:10018000B0B5044600F028F9054640F20800C2F276
:1001900000000068611C18BF044400BF00F01CF997
:1001A000401BA042FAD3B0BD2DE9F04F84B00E68D9
:1001B0000290002E00F0018140F2004741F200421F
:1001C00002984FF6FF7EC4F20107C4F20102042335
:1001D00000240125C1F2100E4FF0000A4FF0000973
:1001E000904208BF032300930AE000BF01250E6878
:1001F0000AF1010A36FA0AF204F1040400F0DD8083
:1002000005FA0AFB16EA0B08F1D04A68724511DCC0
:10021000122A54D80298DFE802F0350A43475353B4
:1002200053535353535353535353534A4E00D1F8DC
:100230000C9045E04FF6FF73C1F221039A4210DCA7
:100240000023C1F2110302989A421BD00023C1F28D
:1002500012039A4216D00023C1F221039A4211D010
:100260002EE00023C1F2220302989A420AD0002312
:10027000C1F231039A4205D00023C1F232039A42FF
:100280001ED100BF8A6842B1012A14BFC0F814B061
:10029000C0F810B04FF0080912E04FF004090FE069
:1002A000CA6802F108090BE04FF0000908E0CA68CB
:1002B00002F1040904E0CA6802F10C0900E00298A6
:1002C00022460346B8F5807F24BF203A04331D68D8
:1002D0004FF00F0C0CFA02F6B54309FA02F22A436A
:1002E0001A60CA79D2067FF581AF41F21803CDF8C2
:1002F0000490C4F202031A68F34642F001021A6045
:100300001A684FEA9A0E02F001020392039AA7F5C7
:100310007E72B94652F82E3004F00C0740F6000603
:100320000CFA07F5C4F20106B04223EA050C10D01E
:1003300040F60043C4F2010398420CD041F200039E
:10034000C4F201039842009B4FF0010508BF02234D
:1003500003E0002300E001230125BB4043EA0C0336
:1003600042F82E304E684F46F203D9F8002054BFB1
:1003700022EA080242EA0802DDF804903A607A684C
:10038000B30354BF22EA080242EA08027A60F30289
:10039000BA6854BF22EA080242EA0802B30240F2F5
:1003A0000C43BA60C4F20103DE461A6854BF22EA65
:1003B000080242EA08021A6019E704B0BDE8F08FAB
:1003C0008068084018BF012070470000002A08BF5D
:1003D000090401617047000040F2E800C2F2000029
:1003E0000068704770B598B30446006C20B90020CF
:1003F000E063204600F012FA24202064206801689F
:1004000021F001010160016841F4004101600168CF
:1004100021F40041016000F075FB48F28041C0F218
:100420001E0140F60012666888424FF00001C0F2DB
:100430003D0248F2A16C4FF0000338BF0121904209
:10044000C0F2010C38BF0123664538BF0B460BB123
:10045000012070BD4DF68361C4F21B31A0FB011277
:100460002168930C4D68664525F03F0545EA9242A8
:100470004A600A6A22F03F0C09D34FF496725A433D
:1004800044F6D353C1F26203A2FB03239B095A1C17
:1004900042EA0C020A6248F2A063CA69C0F2010390
:1004A0009E424CF6FF7322EA030C0AD80138720010
:1004B000B0FBF2F001306FF31F30042898BF042026
:1004C0002BE0A368A0F1010E9BB119207043BEFB85
:1004D000F0F00422013062F31F30000512D09BB10E
:1004E00019207043BEFBF0F00422013062F31F308C
:1004F00011E006EB4600BEFBF0F001306FF31F3059
:100500000005ECD1012008E006EB4600BEFBF0F050
:1005100001306FF31F3040F4004040EA0C00C86126
:100520000868D4E9072320F0C0001043184308608E
:10053000886848F2FF3204F10C0690434CCE184311
:100540001043A5698860C86820F0FF003043284345
:10055000C860086840F00100086000202021A06405
:1005600021642063606470BD2DE9F04F83B01E46A6
:1005700091460F460446FFF72FFF216C20290CD12E
:1005800002210546C0F210012046012219230095E0
:1005900000F0F8FF30B1022700E00227384603B030
:1005A000BDE8F08FE06B012801D10227F6E70121B9
:1005B0002068E1630168C90703D1016841F00101C6
:1005C0000160016807F0FE0A21F400610160242047
:1005D00020640020A0640020CFF6FF704FF0010BD4
:1005E0004FF0A008E062B9F1020F98BF4FF0020986
:1005F000206800220168334641F480710160204682
:100600004FF00111009500F0BDFF2168002850D186
:10061000C1F810A0FFF7E0FE21680A4652F8143F27
:100620001768256CA02D054620D0B80A40EA530073
:1006300010F001001AD100BFFFF7CEFE36B1401B0B
:10064000B04288BFC4F8408002E000BFC4F84080D8
:10065000216848694A69236CA02B05D0920A42EAB6
:10066000500010F00100E7D001F1140220202064B6
:1006700048690B68800743F400730B6021D46FF462
:100680008060022110602046C0F21001012219236F
:100690000095012700F076FF00287FF47FAF0BF173
:1006A000010BCB45A4D12020206400200127E0636A
:1006B00074E708680327C00544BF4FF40070A064C6
:1006C0006CE70026029610680122029088690221D8
:1006D000029002982046C0F21001192300950127CC
:1006E00000F050FF00287FF459AF20202064E6631B
:1006F000002753E72DE9F04782B01E46174689468A
:100700000446FFF769FE216C20290DD10221054620
:10071000C0F21001204601221923009500F032FF9B
:1007200010B9E06B012803D1022002B0BDE8F087C8
:1007300001212068E1630168DDF82880C90703D141
:10074000016841F00101016001684FF0000A21F4E5
:10075000006101602120206410206064C4F848A07A
:1007600067626685608D494620850020CFF6FF7060
:10077000E062204642462B4600F080FE18B1012080
:1007800002B0BDE8F087CDF804A02068416901916E
:1007900080690190019805E0204641462A4600F014
:1007A000C5FE20BB208D58B3204641462A4600F0A6
:1007B00067FFE0B9606A2168024612F8013B0B61ED
:1007C0006262628D013A6285228D571E27854B69D0
:1007D0003F0418BF13F00403DED0437802300B61EE
:1007E0006062608D01386085901E2085D4E7A06C22
:1007F0000428C4D12068016841F400710160BEE79B
:100800002068016841F4007101602020206400200C
:100810006064E06302B0BDE8F087000010B586B008
:10082000016845F20040C4F2000081424FF000012F
:10083000CDE90411CDE9021101D006B010BD41F29D
:100840001804C4F20204216800F5384041F00801A0
:100850002160216801F0080101910199C0210291F4
:10086000122103910321059102A9FFF79DFC606805
:1008700040F400106060606800F40010019001987E
:1008800006B010BD40F2080040F2E801C2F20000DC
:10089000C2F2000100680A68104408607047000056
:1008A00080B542F20000C4F20200016841F010017C
:1008B0000160032000F062F8002000F005F800F06D
:1008C0002BF8002080BD0000B0B540F20802C2F253
:1008D000000240F200011268C2F200014FF47A7384
:1008E0000968B3FBF2F20446B1FBF2F1084600F0EE
:1008F000A9FD0F2C4FF001050CD858B94FF0FF306F
:1009000021460022002500F029F840F20C00C2F236
:10091000000004602846B0BD82B041F21800C4F265
:1009200002000168022241F001010160016801F04A
:10093000010101910199416841F080514160406895
:1009400000F08050009000980420C4F2010001687B
:1009500062F31A61016002B07047000070B514467E
:100960000D46064601F0CAF82946224600F09CFFD3
:100970000146304601F0CAF870BD000080B501F0B4
:10098000D7F880BD2DE9F04381B0002800F08980C0
:1009900042F20008C4F202080446D8F800000D46EE
:1009A00000F0070088420CD2D8F8000020F00700C1
:1009B0002843C8F80000D8F8000000F00700A8425B
:1009C0006FD1206841F204098107C4F2020917D5EA
:1009D000410705D5D9F8001041F4E061C9F80010CD
:1009E000010705D5D9F8001041F46051C9F800108D
:1009F000D9F80010A26821F0F0011143C9F80010E5
:100A0000C00745D1D8F8000000F00700A8420CD973
:100A1000D8F8000020F007002843C8F80000D8F8F4
:100A2000000000F00700A8423BD12068410707D52D
:100A3000D9F80010E26821F4E0611143C9F8001010
:100A4000000708D5D9F80000216920F4605040EA79
:100A5000C100C9F8000000F067F8D9F8001041F6AD
:100A6000C662C1F30311C0F60002515C40F20002FD
:100A700020FA01F140F20C00C2F200000068C2F25C
:100A800000021160FFF720FF002001B0BDE8F083F5
:100A90006068022809D0012829D159F8041C89036B
:100AA00007D4012001B0BDE8F08359F8041C890186
:100AB000F7D5D9F8001021F003010843C9F8000068
:100AC000FFF78AFC064641F2883700BFD9F80000DC
:100AD000616800F00C00B0EB810F93D0FFF77CFC55
:100AE000801BB842F2D9032001B0BDE8F08359F869
:100AF000041C8907D5D5DCE740F20000C2F20000F3
:100B00000068704780B5FFF7F7FF41F20401C4F2B7
:100B10000201096841F6D662C1F30221C0F6000263
:100B2000515CC84080BD000041F2040CC4F2020CCC
:100B3000DCF8003003F00C00082841F20020C0F27D
:100B40007A0018BF7047C3F383420AA18A5CD903B5
:100B500005D440F60010C0F23D0050437047DCF869
:100B6000001008A3C1F34041595C5043B0FBF1F0C1
:100B7000704700BF02030405060708090A0B0C0DA5
:100B80000E0F1010010200002DE9F04182B0002884
:100B900000F0C4800446007841F20006C007C4F2A9
:100BA000020643D0706800F00C00042817D070686B
:100BB00000F00C00082802D17068C0030FD46568EB
:100BC0002DB1B5F5A02F10D0B5F5803F11D030680C
:100BD00020F480303060306820F480200CE03068F1
:100BE000800323D5606808BB98E0306840F480201B
:100BF0003060306840F480303060FFF7EDFB002D4E
:100C0000054610D03068800310D4FFF7E5FB401B89
:100C10006428F7D904E100BFFFF7DEFB401B64281E
:100C20004FF0030077D830688003F5D42078800730
:100C300018D5706810F00C0F07D0706800F00C0029
:100C4000082826D17068C00323D43068800702D5F5
:100C50002069012862D13068616920F0F80040EA1B
:100C6000C1003060207800073DD5A06938B300206E
:100C7000C4F242200121C0F88014FFF7ADFB054605
:100C8000706A80072DD4FFF7A7FB401B0228F7D915
:100C9000C6E02069002840F20000C4F2422000F0C3
:100CA000968001210160FFF797FB054630688007B9
:100CB000D1D4FFF791FB401B0228F7D9B0E0002008
:100CC000C4F242200021C0F88014FFF785FB0546DE
:100CD000706A800707D5FFF77FFB401B0228F7D912
:100CE0009EE000F0F9FD207840071BD4E5698DB146
:100CF000706800F00C00082847D1012D0ED07068F4
:100D0000216A00F480328A4208D1616A00F47010CE
:100D1000884203D1002002B0BDE8F081012002B07A
:100D2000BDE8F081F06910F0805808D1F06940F01A
:100D30008050F061F06900F080500190019847F216
:100D40000007C4F200073868C00510D4386840F4C2
:100D500080703860FFF740FB054600BF3868C0056B
:100D600005D4FFF739FB401B6428F7D958E0E56844
:100D70001DB1052D3CD0012D3ED0306A20F0010080
:100D80003062306A20F0040039E00027C4F24227C4
:100D900000203866FFF720FB022D05460CD100BF6E
:100DA0003068800154D5FFF717FB401B02284FF035
:100DB0000300F5D9AFE700BF30688001AAD5FFF77F
:100DC0000BFB401B02284FF00300F5D9A3E70021DD
:100DD0000160FFF701FB0546306880077FF542AFF1
:100DE000FFF7FAFA401B02284FF00300F4D992E70C
:100DF000306A40F004003062306A40F00100306236
:100E0000FFF7EAFA002D054641F2883714D000BFFB
:100E1000306A800713D4FFF7DFFA401BB842F7D9D6
:100E2000032002B0BDE8F081FFF7D6FA401BB842BC
:100E30004FF003003FF66FAF306A8007F4D4B8F18B
:100E4000000F7FF453AFF06920F08050F0614DE760
:100E5000206AB0F5803F05D17168A26821F40031A5
:100E6000114371607168626A21F474111043084380
:100E7000706001203866FFF7AFFA044630688001E1
:100E80003FF548AFFFF7A8FA001B02284FF0030018
:100E9000F4D940E770B538B10446406A30B100205B
:100EA000206104F1140007E0012070BD6068B0F516
:100EB000827F03D004F11C00002101600026A6629D
:100EC000606D18B92046266500F036F8022060658E
:100ED00094E8071001F48271036802F4044223F0DD
:100EE00040030360236911440CF40062114403F0D1
:100EF00002026369114403F00102A369E569114428
:100F000003F40072114405F03802256A114405F01B
:100F10008002A56A114305F40052114301600421C7
:100F200001EA13414160C16921F40061C1610120FE
:100F3000A6656065304670BD70B586B0002640F687
:100F400000040596CDE90366C4F20104006804F5C7
:100F500020518842029601D006B070BD41F21800BF
:100F6000C4F20200016802AD41F4805101600168E1
:100F700001F4805101910199016841F0040101607F
:100F80000068294600F0040001900198A02002901A
:100F900002200390032005902046FFF705F940202A
:100FA000CDE90206204629460496FFF7FDF806B073
:100FB00070BD00002DE9F04381B0044640681D4635
:100FC0001746B0F5827F0E4602D1A068002858D09F
:100FD000206D012803D1022001B0BDE8F0834FF05D
:100FE0000109C4F85090FFF7F7F9616D012946D166
:100FF0008046002E4FF0010018BF002F76D004204D
:1010000060650020A065A663A787E7872063A086A8
:10101000E086A1682064B1F5004F606408D12068C3
:10102000016821F040010160016821F48041016004
:1010300020680168490603D4016841F0400101605D
:10104000E168E08F49B3002843D06E1C0AE000BF7E
:10105000C068A16B21F8020BA163E08F0138E08723
:10106000E08FB0B320688168C907F1D1FFF7B4F908
:10107000002EF5D0A0EB0800A842F1D327E0022013
:1010800034E0042060652046314632463B460095F8
:1010900000F0EEF801B0BDE8F083D0B16E1C0AE0BC
:1010A000007BA16B0870A06B0130A063E08F01385A
:1010B000E087E08F68B120688168C907F0D1FFF749
:1010C0008BF9002EF5D0A0EB0800A842F1D3032045
:1010D0000CE020462946424600F014FC00281CBFC4
:1010E0002020A065A06D002818BF01200021C4F8B1
:1010F0005490216501B0BDE8F08300002DE9F04374
:1011000081B00446006D012803D1022001B0BDE882
:10111000F0834FF001091D4616460F46C4F8509063
:10112000FFF75AF9616D01295BD18046002F4FF01E
:10113000010018BF002E00F093800320606500209E
:10114000A0652763A686E686A063A087E087A168DE
:10115000C4E91000B1F5004F08D12068016821F002
:1011600040010160016841F480410160206801682C
:10117000490603D4016841F0400101606168731EB3
:10118000E268B1FA81F1B3FA83F349095B09B2F578
:10119000006F41EA030126D139B1216B0988C16092
:1011A000B81C2063E08E0138E086E08E002840D035
:1011B0006E1C09E0216B31F8022BC2602163E08EC6
:1011C0000138E086E08EA0B3206881688907F1D4F9
:1011D000FFF702F9002EF5D0A0EB0800A842F1D3EA
:1011E00025E002203CE039B139780173206B0130F1
:1011F0002063E08E0138E086E08ED0B16E1C0AE0FC
:10120000216B09780173206B01302063E08E013877
:10121000E086E08E68B1206881688907F0D4FFF726
:10122000DBF8002EF5D0A0EB0800A842F1D3032094
:1012300016E020462946424600F094FB00281CBFD9
:101240002020A065A06838B9002000902068C168FF
:101250000091806800900098A06D002818BF0120C0
:101260000021C4F85490216501B0BDE8F08300006E
:101270002DE9F04381B00446006D012803D102201E
:1012800001B0BDE8F08301201E4615460F462065DB
:10129000FFF7A2F8616D814601290CD06068B0F5B6
:1012A000827F73D104294FF0020040F0C380A1680F
:1012B000002940F0BF80002F4FF0010018BF002D23
:1012C00000F0B880002E00F0B580606D0021042889
:1012D0001CBF05206065A165A563E687A687276317
:1012E000E6862068A686216461640168490603D405
:1012F000016841F0400101606168731EE268B1FA63
:1013000081F1B3FA83F3DDF8208049095B09B2F576
:10131000006F41EA03013BD139B1216B0988C160FB
:10132000B81C2063E08E0138E086012608F1010533
:10133000E08E10B9E08F002866D0206881688907A8
:101340000CD5E18E012E09D141B1216B002631F877
:10135000022BC2602163E18E0139E1868168C907F1
:101360000AD0E18F41B1C068A16B012621F8020BC0
:10137000A163E08F0138E087FFF72EF8002DD7D06A
:10138000A0EB09004045D3D3032053E0022051E0F5
:1013900039B139780173206B01302063E08E013858
:1013A000E086012608F10105E08E08B9E08F58B308
:1013B0002068816889070DD5E18E012E0AD149B1D7
:1013C000216B002609780173206B01302063E08EC9
:1013D0000138E08620688168C9070BD0E18F49B1E8
:1013E000C068A16B01260870A06B0130A063E08F7C
:1013F0000138E087FEF7F0FF002DD5D0A0EB090003
:101400004045D1D3032015E0204641464A4600F02E
:10141000A9FA18B12020A06501200BE0A0680028DF
:101420004FF0000006D100902168CA6800928968D8
:1014300000910099012161650021216501B0BDE89D
:10144000F083000080B500F009FB80BDFEE70000DE
:101450000268516949054FF000010CD56FF48063B3
:1014600053612022016302644164826C42F00402F1
:101470008264C16301210846704700002DE9F041F4
:1014800082B00446C06A1D46164610F5803F0F46DE
:1014900018BF012823D12068016841F480710160E0
:1014A00020464FF0011100223346009500F06AF803
:1014B00050B120680068C00544BF4FF40070A064BC
:1014C000032002B0BDE8F081206940F20208B0F5C7
:1014D000804FC0F2010808D107F0FE0018E008288C
:1014E000D9D0206B1228D6D0DAE7062000EAD71030
:1014F0002168F030086108F10601204632462B468B
:1015000000F07CF818B1012002B0BDE8F081F8B21B
:10151000216832460861204641462B4600F06EF8AD
:10152000002818BF012002B0BDE8F081F0B581B0FD
:10153000044600684069400721D415460E464F1CFA
:1015400004E000BF20684069400718D42046FFF738
:101550007FFF88B9002FF5D0FEF73EFF16B1401B84
:10156000B042EFD900202021206321646064A16C87
:1015700041F02001A164E063012001B0F0BD002032
:1015800001B0F0BD2DE9F047DDF820809A461646FF
:10159000814601F47F078CB25D1C00BFD9F80000C2
:1015A000B7F5803F14BF1830143000682040001B8E
:1015B000B0FA80F04009B0421DD1002DEED0FEF708
:1015C0000BFFBAF1000F03D0A0EB08005045E5D99E
:1015D00000202021C9F83000C9F84010C9F84400A3
:1015E000D9F8481041F02001C9F84810C9F83C006A
:1015F0000120BDE8F0870020BDE8F0872DE9F0412B
:1016000004460068984643698FB203EA0701B9426D
:1016100002D10020BDE8F0814169490512D4164687
:10162000551C00BF35B1FEF7D7FEFEB1A0EB080098
:10163000B0421BD8206841693940B942E9D04169BC
:101640004905EFD5016841F4007101606FF48061D4
:10165000416100202021206321646064A16C41F07D
:101660000401A164E0630120BDE8F0810020202195
:10167000206321646064A16C41F02001F1E7000067
:10168000F0B581B0044600684069000621D41546D3
:101690000E464F1C04E000BF20684069000618D4C5
:1016A0002046FFF7D5FE88B9002FF5D0FEF794FE4F
:1016B00016B1401BB042EFD90020202120632164E5
:1016C0006064A16C41F02001A164E063012001B0DD
:1016D000F0BD002001B0F0BD70B582B040F2100640
:1016E0000C460546C2F2000630464E2101224FF05C
:1016F000FF33FEF739FF0028F6D105F0F000204354
:1017000040F0080140F00C008DF8040044EA051098
:101710008DF8051040F0080140F00C008DF806002F
:1017200040F210008DF807104FF0FF36C2F20000B3
:1017300001AA4E2104230096FEF7DCFF0520FEF7E8
:101740001FFD02B070BD000080B538200021FFF7FA
:10175000C3FF02200021FFF7BFFF0C200021FFF78D
:10176000BBFF01200021FFF7B7FF80BD10B5017856
:10177000002908BF10BD441EC8B20121FFF7ACFF0D
:10178000A17801340029F7D110BD0000F0B585B073
:10179000002641F21800CDE90366CDE90166C4F2E6
:1017A0000200016840F6000441F020010160016878
:1017B000C4F2010401F020010091009901680022A7
:1017C00041F0040101600168102501F0040100915D
:1017D0000099016841F0080101600068102100F0E3
:1017E0000800009000982046FEF7F0FD01950127C3
:1017F000032001ADCDE90276049020462946FEF78C
:10180000D3FC04F580602946CDE901760396FEF706
:10181000CBFC05B0F0BD000080B540F2100045F2F1
:101820000041C2F20000C4F2000148F2A0620023AD
:101830004FF4804CC0F2010280E80E00C0E9033C86
:10184000C0E90533C0E90733FEF7CCFD002808BF27
:1018500080BDFEF78FFC000010B540F26C0043F233
:101860000001C2F20000C4F201014FF482720023B1
:101870004FF0010C4FF4007E382480E80E000A215E
:10188000C0E90333C0E905CEC461C0E90833C0E94B
:101890000A31FFF7FFFA002808BF10BDFEF76AFC07
:1018A000FEE70000FEE7000000F0070080F00703FD
:1018B000042B28BF04234FF0FF3C03380CFA03F33A
:1018C00038BF0020994381400CFA00F022EA000062
:1018D000084370477047000081B040F20000C2F238
:1018E0000000006844F6D351C1F26201A0FB01017F
:1018F000480A009000BF0098411E00280091F9D1CD
:1019000001B0704710B5044640689446B0F5827F38
:101910000A461AD1A168B1F5004F02D0B1F5806F27
:1019200004D121680B6823F040030B60B0F5827F7F
:101930000BD1A068B0F5806F07D120460121634626
:1019400000F022F840B9002010BD204680216346F7
:1019500000F01AF80028F6D0A06D40F02000A06535
:10196000032010BD10B513460A468021044600F03E
:101970000BF800280FBF0020A06D40F02000A065EC
:1019800018BF032010BD00002DE9F04381B01E46B2
:1019900090460D468146FEF71FFD301A00EB080702
:1019A000FEF71AFD40F20001C2F200010968C1F31E
:1019B000CB3179430091D9F8001089682940A942B8
:1019C00019D1064608F1010406E000BFD9F800006D
:1019D00080682840A8420ED1002CF7D0FEF7FCFC0E
:1019E000801BB8420BD200980099002808BF074618
:1019F000481E0090EAE7002001B0BDE8F083D9E975
:101A000000014268B1F5827F22F0E00242600BD112
:101A1000D9F80810B1F5004F02D0B1F5806F03D1AD
:101A2000016821F040010160D9F82810B1F5005F8C
:101A300007D1016821F400510160016841F40051AF
:101A400001600120C9F854000020C9F850000320AB
:101A500001B0BDE8F083000070470000B0B5013868
:101A60000024B4EB106F1CBF0120B0BD4EF2100576
:101A7000CEF2000568604FF0FF300F2100F046F80D
:101A80000720AC6028602046B0BD000080B5FEF79E
:101A9000F9FE80BD70B590B006AC20462821FEF757
:101AA00048FB002501204FF480310690CDE9071551
:101AB0000A9002264FF4E010CDE90D610F90204608
:101AC0000595CDE90355CDE90155FFF75DF878B9E6
:101AD0000F20CDE901064FF480600395CDE90405A0
:101AE00001A80221FEF74EFF002804BF10B070BD10
:101AF000FEF740FB70470000FEE700004EF60C507A
:101B0000CEF200000068C0F3022070474EF6145376
:101B100000F00F02CEF2000309011A4400F1604305
:101B2000B0F1FF3FC8BF03F5644211707047000079
:101B30004EF60C51CEF200010A684FF6FF031A4030
:101B400060F30A2242F0806040F0FD700860704748
:101B50002DE9F04182B040F60008C4F201080024EB
:101B60004046102100228DF80740FEF72FFC40F27E
:101B70006C06C2F200060DF10707002500BF00BF8A
:101B800000BF00BF00BF00BF30463946012203231B
:101B9000FFF710FA9DF80700022C40EA052504F132
:101BA0000104F1D340461021012200BF00BF00BF55
:101BB00000BF00BFFEF70AFC284602B0BDE8F08176
:101BC00010B540F60004C4F20104204610210022A2
:101BD00000BF00BF00BF00BF00BFFEF7F7FB00BFA4
:101BE00000BF00BF00BF00BF00F052F86420FEF746
:101BF000C7FA41F20002C8F200020020032100F0FF
:101C00007BF800BF00BF00BF00BF00BF00F04EF870
:101C100020461021012200BF00BF00BF00BF00BF4F
:101C2000FEF7D4FB10BD000010B540F60004C4F26E
:101C3000010420461021002200BF00BF00BF00BFEA
:101C400000BFFEF7C3FB00BF00BF00BF00BF00BF67
:101C500000F01EF86420FEF793FA41F20002CAF287
:101C600000020020032100F047F800BF00BF00BFC2
:101C700000BF00BF00F01AF820461021012200BF6B
:101C800000BF00BF00BF00BFFEF7A0FB10BD0000FB
:101C900080B540F26C0040F20401C2F20000C2F2D2
:101CA000000101220323FFF729FA80BD10B540F699
:101CB0000004C4F20104204610210022FEF786FB36
:101CC00040F26C0040F20501C2F20000C2F20001D5
:101CD0000122032300BF00BF00BF00BF00BFFFF70A
:101CE0000DFA20461021012200BF00BF00BF00BF37
:101CF00000BFFEF76BFB10BD2DE9F04182B00D4631
:101D000000218DF807108DF8061040F20601C2F28E
:101D10000001097845EA800008438DF8070040F289
:101D20006C001446C2F200000DF1070101220323EA
:101D3000FFF7E4F90120FEF723FABDB140F26C0889
:101D4000EE00C2F200080DF1060700BF24FA06F00B
:101D50008DF806004046394601220323FFF7CEF9ED
:101D6000E8B2013D0128A6F10806EFD102B0BDE8B6
:101D7000F0810000B0B5E0B140F2C80E1F220FF2B2
:101D80003C0CC2F2000E00BFB0FBF1F30EEB0205FB
:101D900003FB110488421CF8044005F8014CA2F131
:101DA000010403D3022A22461846EDD10EEB0400AB
:101DB000B0BD01A0B0BD00BF3000000030313233F3
:101DC0003435363738396162636465660000000077
:101DD00040F60044C4F20104FEF762FDFFF75AFE2C
:101DE000FFF7D4FCFFF718FDFFF736FDFFF7ACFC5B
:101DF00026A0FFF7BBFCC0200021FFF76DFC25A04B
:101E0000FFF7B4FC4FF47A70FEF7BAF9FFF79CFCC9
:101E100023A500BFFFF798FCFFF7D2FEFFF746FFB0
:101E200020460121FEF7CCFA0028F9D1FFF790FEF9
:101E300010210646FFF79EFFFFF798FCC020002107
:101E4000FFF74AFCFFF7F0FEFFF730FF20460121C5
:101E5000FEF7B6FA0028F9D1FFF77AFE10210746FF
:101E6000FFF788FFFFF782FC2846FFF77FFCF01B97
:101E7000B919B0FBF1F01021FFF77CFFFFF776FCFA
:101E80004FF47A70FEF77CF9C4E700BF2020486564
:101E90006C6C6F0020202020706564696B0000006E
:101EA0002076616C3A20000002E008C8121F08C1C9
:101EB000002AFAD170477047002001E001C1121FCB
:101EC000002AFBD170470000000000000000010262
:101ED00003040607080900000000010203040000D3
:101EE000001F00080000002010000000A81E0008CD
:101EF000101F000810000020E0040000B81E0008B9
:101F00000024F4000608400001000000100000005A
:04000005080000ED02
:00000001FF
