:020000040800F2
:10000000F0040020010100082D19000879140008EF
:10001000291900086D010008811B0008000000007C
:10002000000000000000000000000000E11A0008CD
:1000300071010008000000005D190008151B000890
:100040001B0100081B0100081B0100081B01000820
:100050001B0100081B010008750100081B010008B6
:100060001B0100081B0100081B0100081B01000800
:100070001B0100081B0100081B0100081B010008F0
:100080001B0100081B0100081B0100081B010008E0
:100090001B0100081B0100081B0100081B010008D0
:1000A0001B0100081B0100081B0100081B010008C0
:1000B0001B0100081B0100081B0100081B010008B0
:1000C0001B0100081B0100081B0100081B010008A0
:1000D0001B0100081B0100081B0100081B01000890
:1000E0001B0100081B0100081B010008DFF80CD0F1
:1000F00000F02AF800480047351E0008F0040020F0
:100100000648804706480047FEE7FEE7FEE7FEE7B1
:10011000FEE7FEE7FEE7FEE7FEE7FEE77D1B0008E1
:10012000ED000008D2B201E000F8012B491EFBD21D
:1001300070470022F6E710B513460A4604461946F2
:10014000FFF7F0FF204610BD064C074D06E0E068C3
:1001500040F0010394E8070098471034AC42F6D30E
:10016000FFF7C8FF281F0008481F0008FEE700002F
:100170007047000080B5012000F028F880BD000025
:10018000EFF3108072B600BFFEE70000B0B5044682
:1001900000F02EF9054640F20800C2F200000068A7
:1001A000611C18BF044400BF00F022F9401BA042AC
:1001B000FAD3B0BD012806D140F2E800C2F2000037
:1001C00001210170704700BF7047000080B540F208
:1001D0001441C4F201010A68024208BF80BD0860F0
:1001E000FFF7E8FF80BD00002DE9F04F82B00E68F8
:1001F000002E00F0F38041F20042C4F20102042319
:1002000040F2004E904208BF03234FF6FF7CC4F239
:10021000010E009300240123C1F2100C4FF0000ADC
:100220004FF0000940E0012504F00C030F279F4028
:100230002BEA070705FA03F33B4342F826304E68E2
:10024000F203DEF8002054BF22EA080242EA080264
:10025000CEF80020DEF80420B30354BF22EA0802DF
:1002600042EA0802CEF80420F302DEF8082054BF68
:1002700022EA080242EA0802B30240F20C43CEF836
:100280000820C4F201031A6854BF22EA080242EAB5
:1002900008021A6001230E680AF1010A36FA0AF20E
:1002A00004F1040400F09A8003FA0AFB16EA0B0832
:1002B000F1D04A68624511DC122A51D8DFE802F019
:1002C000340A4246505050505050505050505050A8
:1002D00050494D00D1F80C9042E000BF4FF6FF7539
:1002E000C1F22105AA420FDC0025C1F21105AA4284
:1002F0001AD00025C1F21205AA4215D00025C1F27C
:100300002105AA4210D02BE00025C1F22205AA4205
:100310000AD00025C1F23105AA4205D00025C1F25C
:100320003205AA421CD100BF8A6842B1012A14BF1B
:10033000C0F814B0C0F810B04FF0080910E04FF04A
:1003400004090DE0CA6802F1080909E04FF000094C
:1003500006E0CA6802F1040902E0CA6802F10C0969
:1003600022460546B8F5807F24BF203A04352E6822
:100370000F279740BE4309FA02F232432A60CA7936
:10038000D2067FF588AF41F21803C4F202031A685F
:100390004FEA9A0642F001021A601A6840F600031A
:1003A00002F001020192019AAEF57E7252F826B077
:1003B000C4F2010398420FD040F60043C4F2010397
:1003C00098423FF430AF41F20003C4F20103009DB4
:1003D000984208BF022527E7002525E702B0BDE8BF
:1003E000F08F0000002A08BF090401617047000077
:1003F00040F2EC00C2F2000000687047F0B581B036
:1004000098B30446006C20B90020E063204600F059
:1004100017FA242020642068016821F0010101609E
:10042000016841F400410160016821F4004101606C
:1004300000F07EFB48F28041C0F21E0140F600123F
:10044000656888424FF00001C0F23D0248F2A16C9D
:100450004FF0000338BF01219042C0F2010C38BFB9
:100460000123654538BF0B4613B1012001B0F0BD33
:100470004DF68361C4F21B31A0FB011221684FEAE3
:10048000924E4B684FF4967623F03F0343EA924333
:100490004B6044F6D3530F6A0EFB06F6C1F26203BB
:1004A000A6FB033627F03F03B709654538BF970C15
:1004B0007A1C1A430A62CA6948F2A0674CF6FF73B5
:1004C000C0F20107BD4222EA030C0AD801386A00D3
:1004D000B0FBF2F001306FF31F30042898BF042006
:1004E0002BE0A368A0F1010E9BB119206843BEFB6D
:1004F000F0F00422013062F31F30000512D09BB1EE
:1005000019206843BEFBF0F00422013062F31F3073
:1005100011E005EB4500BEFBF0F001306FF31F303A
:100520000005ECD1012008E005EB4500BEFBF0F032
:1005300001306FF31F3040F4004040EA0C00C86106
:100540000868D4E9072320F0C0001043184308606E
:10055000886848F2FF3204F10C0790438CCF1843AF
:100560001043A6698860C86820F0FF003843304314
:10057000C860086840F00100086000202021A064E5
:1005800021642063606401B0F0BD00002DE9F04FEC
:1005900083B01E4691460F460446FFF729FF216CA3
:1005A00020290CD102210546C0F21001204601226B
:1005B0001923009500F0FCFF30B1022700E002276C
:1005C000384603B0BDE8F08FE06B012801D1022767
:1005D000F6E701212068E1630168C90703D10168DA
:1005E00041F001010160016807F0FE0A21F4006199
:1005F0000160242020640020A0640020CFF6FF705A
:100600004FF0010B4FF0A008E062B9F1020F98BF64
:100610004FF00209206800220168334641F48071DE
:10062000016020464FF00111009500F0C1FF2168E4
:10063000002850D1C1F810A0FFF7DAFE21680A4661
:1006400052F8143F1768256CA02D054620D0B80A33
:1006500040EA530010F001001AD100BFFFF7C8FEB6
:1006600036B1401BB04288BFC4F8408002E000BFF2
:10067000C4F84080216848694A69236CA02B05D0E2
:10068000920A42EA500010F00100E7D001F1140292
:100690002020206448690B68800743F400730B60D6
:1006A00021D46FF48060022110602046C0F2100156
:1006B000012219230095012700F07AFF00287FF41A
:1006C0007FAF0BF1010BCB45A4D12020206400208B
:1006D0000127E06374E708680327C00544BF4FF4AF
:1006E0000070A0646CE70026029610680122029058
:1006F00088690221029002982046C0F21001192355
:100700000095012700F054FF00287FF459AF202006
:100710002064E663002753E72DE9F04782B01E46C8
:10072000174689460446FFF763FE216C20290DD148
:1007300002210546C0F2100120460122192300952E
:1007400000F036FF10B9E06B012803D1022002B09F
:10075000BDE8F08701212068E1630168DDF82880A9
:10076000C90703D1016841F00101016001684FF040
:10077000000A21F4006101602120206410206064DF
:10078000C4F848A067626685608D494620850020D0
:10079000CFF6FF70E062204642462B4600F084FE12
:1007A00018B1012002B0BDE8F087CDF804A02068A0
:1007B0004169019180690190019805E02046414618
:1007C0002A4600F0C9FE20BB208D58B32046414682
:1007D0002A4600F069FFE0B9606A2168024612F813
:1007E000013B0B616262628D013A6285228D571E68
:1007F00027854B693F0418BF13F00403DED043780C
:1008000002300B616062608D01386085901E20852A
:10081000D4E7A06C0428C4D12068016841F40071B9
:100820000160BEE72068016841F40071016020208A
:10083000206400206064E06302B0BDE8F08700003F
:1008400010B586B0016845F20040C4F20000814254
:100850004FF00001CDE90411CDE9021101D006B03D
:1008600010BD41F21804C4F20204216800F53840BA
:1008700041F008012160216801F00801019101990E
:10088000C0210291122103910321059102A9FFF7D2
:10089000ABFC606840F400106060606800F4001019
:1008A0000190019806B010BD40F2080040F2EC0142
:1008B000C2F20000C2F2000100680A681044086039
:1008C0007047000080B542F20000C4F202000168E7
:1008D00041F010010160032000F066F8002000F0F4
:1008E00005F800F02BF8002080BD0000B0B540F204
:1008F0000802C2F2000240F200011268C2F20001D6
:100900004FF47A730968B3FBF2F20446B1FBF2F1DB
:10091000084600F0ADFD0F2C4FF001050CD858B97A
:100920004FF0FF3021460022002500F02DF840F264
:100930000C00C2F2000004602846B0BD82B041F253
:100940001800C4F202000168022241F001010160B6
:10095000016801F0010101910199416841F0805164
:100960004160406800F08050009000980420C4F27C
:100970000100016862F31A61016002B07047000073
:1009800080B501F0FFF880BD70B514460D460646EF
:1009900001F008F92946224600F0CAFF0146304618
:1009A00001F008F970BD000080B501F015F980BDB7
:1009B0002DE9F04381B0002800F0898042F2000860
:1009C000C4F202080446D8F800000D4600F0070003
:1009D00088420CD2D8F8000020F007002843C8F85D
:1009E0000000D8F8000000F00700A8426FD120688E
:1009F00041F204098107C4F2020917D5410705D560
:100A0000D9F8001041F4E061C9F80010010705D5DC
:100A1000D9F8001041F46051C9F80010D9F800105D
:100A2000A26821F0F0011143C9F80010C00745D1B8
:100A3000D8F8000000F00700A8420CD9D8F8000050
:100A400020F007002843C8F80000D8F8000000F0A4
:100A50000700A8423BD12068410707D5D9F800100C
:100A6000E26821F4E0611143C9F80010000708D5DD
:100A7000D9F80000216920F4605040EAC100C9F8AB
:100A8000000000F067F8D9F8001041F60E72C1F3CB
:100A90000311C0F60002515C40F2000220FA01F19D
:100AA00040F20C00C2F200000068C2F200021160C5
:100AB000FFF71CFF002001B0BDE8F083606802284A
:100AC00009D0012829D159F8041C890307D4012031
:100AD00001B0BDE8F08359F8041C8901F7D5D9F8B5
:100AE000001021F003010843C9F80000FFF780FC63
:100AF000064641F2883700BFD9F80000616800F06F
:100B00000C00B0EB810F93D0FFF772FC801BB84252
:100B1000F2D9032001B0BDE8F08359F8041C89071D
:100B2000D5D5DCE740F20000C2F200000068704753
:100B300080B5FFF7F7FF41F20401C4F20201096832
:100B400041F61E72C1F30221C0F60002515CC8409A
:100B500080BD000041F2040CC4F2020CDCF800304D
:100B600003F00C00082841F20020C0F27A0018BF00
:100B70007047C3F383420AA18A5CD90305D440F6C7
:100B80000010C0F23D0050437047DCF8001008A38D
:100B9000C1F34041595C5043B0FBF1F0704700BFD6
:100BA00002030405060708090A0B0C0D0E0F1010AE
:100BB000010200002DE9F04182B0002800F0C4805D
:100BC0000446007841F20006C007C4F2020643D092
:100BD000706800F00C00042817D0706800F00C005A
:100BE000082802D17068C0030FD465682DB1B5F52F
:100BF000A02F10D0B5F5803F11D0306820F48030A0
:100C00003060306820F480200CE03068800323D509
:100C1000606808BB98E0306840F48020306030683D
:100C200040F480303060FFF7E3FB002D054610D024
:100C30003068800310D4FFF7DBFB401B6428F7D932
:100C400004E100BFFFF7D4FB401B64284FF0030012
:100C500077D830688003F5D42078800718D570687D
:100C600010F00C0F07D0706800F00C00082826D197
:100C70007068C00323D43068800702D5206901283A
:100C800062D13068616920F0F80040EAC10030604C
:100C9000207800073DD5A06938B30020C4F2422077
:100CA0000121C0F88014FFF7A3FB0546706A800796
:100CB0002DD4FFF79DFB401B0228F7D9C6E0206921
:100CC000002840F20000C4F2422000F0968001218A
:100CD0000160FFF78DFB054630688007D1D4FFF730
:100CE00087FB401B0228F7D9B0E00020C4F2422065
:100CF0000021C0F88014FFF77BFB0546706A80076F
:100D000007D5FFF775FB401B0228F7D99EE000F0DE
:100D100027FE207840071BD4E5698DB1706800F08C
:100D20000C00082847D1012D0ED07068216A00F40C
:100D300080328A4208D1616A00F47010884203D17F
:100D4000002002B0BDE8F081012002B0BDE8F081D2
:100D5000F06910F0805808D1F06940F08050F061DF
:100D6000F06900F080500190019847F20007C4F24A
:100D700000073868C00510D4386840F480703860C7
:100D8000FFF736FB054600BF3868C00505D4FFF7FE
:100D90002FFB401B6428F7D958E0E5681DB1052DED
:100DA0003CD0012D3ED0306A20F001003062306A24
:100DB00020F0040039E00027C4F242270020386602
:100DC000FFF716FB022D05460CD100BF30688001ED
:100DD00054D5FFF70DFB401B02284FF00300F5D957
:100DE000AFE700BF30688001AAD5FFF701FB401BC9
:100DF00002284FF00300F5D9A3E700210160FFF7B7
:100E0000F7FA0546306880077FF542AFFFF7F0FA42
:100E1000401B02284FF00300F4D992E7306A40F0FB
:100E200004003062306A40F001003062FFF7E0FAFF
:100E3000002D054641F2883714D000BF306A800784
:100E400013D4FFF7D5FA401BB842F7D9032002B0FC
:100E5000BDE8F081FFF7CCFA401BB8424FF0030029
:100E60003FF66FAF306A8007F4D4B8F1000F7FF41B
:100E700053AFF06920F08050F0614DE7206AB0F583
:100E8000803F05D17168A26821F40031114371607F
:100E90007168626A21F47411104308437060012084
:100EA0003866FFF7A5FA0446306880013FF548AF81
:100EB000FFF79EFA001B02284FF00300F4D940E729
:100EC00070B538B10446406A30B10020206104F1A9
:100ED000140007E0012070BD6068B0F5827F03D088
:100EE00004F11C00002101600026A662606D18B9A3
:100EF0002046266500F036F80220606594E8071069
:100F000001F48271036802F4044223F04003036099
:100F1000236911440CF40062114403F00202636976
:100F2000114403F00102A369E569114403F400725E
:100F3000114405F03802256A114405F08002A56AC3
:100F4000114305F4005211430160042101EA1341E9
:100F50004160C16921F40061C1610120A66560653D
:100F6000304670BD70B586B040F60004C4F201048E
:100F7000006804F52051002688420596CDE90366F5
:100F8000029601D006B070BD41F21800C4F2020012
:100F9000016802AD41F480510160016801F48051A3
:100FA00001910199016841F004010160006829463E
:100FB00000F0040001900198A0200290022003900C
:100FC000032005902046FFF70FF94020CDE90206E7
:100FD000204629460496FFF707F906B070BD0000C9
:100FE0002DE9F04381B0044640681D461746B0F530
:100FF000827F0E4602D1A068002858D0206D0128BB
:1010000003D1022001B0BDE8F0834FF00109C4F81C
:101010005090FFF7EDF9616D012946D18046002E11
:101020004FF0010018BF002F76D00420606500202B
:10103000A065A663A787E7872063A086E086A168EE
:101040002064B1F5004F606408D12068016821F088
:1010500040010160016821F480410160206801685D
:10106000490603D4016841F040010160E168E08F66
:1010700049B3002843D06E1C0AE000BFC068A16BD2
:1010800021F8020BA163E08F0138E087E08FB0B355
:1010900020688168C907F1D1FFF7AAF9002EF5D0C1
:1010A000A0EB0800A842F1D327E0022034E004209E
:1010B00060652046314632463B46009500F0EEF82A
:1010C00001B0BDE8F083D0B16E1C0AE0007BA16BDB
:1010D0000870A06B0130A063E08F0138E087E08FDB
:1010E00068B120688168C907F0D1FFF781F9002E47
:1010F000F5D0A0EB0800A842F1D303200CE0204675
:101100002946424600F042FC00281CBF2020A06572
:10111000A06D002818BF01200021C4F8549021655B
:1011200001B0BDE8F08300002DE9F04381B0044632
:10113000006D012803D1022001B0BDE8F0834FF01B
:1011400001091D4616460F46C4F85090FFF750F9A6
:10115000616D01295BD18046002F4FF0010018BF5F
:10116000002E00F09380032060650020A0652763B7
:10117000A686E686A063A087E087A168C4E9100080
:10118000B1F5004F08D12068016821F040010160ED
:10119000016841F48041016020680168490603D478
:1011A000016841F0400101606168731EE268B1FAB4
:1011B00081F1B3FA83F349095B09B2F5006F41EAA3
:1011C000030126D139B1216B0988C160B81C2063A5
:1011D000E08E0138E086E08E002840D06E1C09E0E9
:1011E000216B31F8022BC2602163E08E0138E0866A
:1011F000E08EA0B3206881688907F1D4FFF7F8F882
:10120000002EF5D0A0EB0800A842F1D325E0022083
:101210003CE039B139780173206B01302063E08EF6
:101220000138E086E08ED0B16E1C0AE0216B0978AF
:101230000173206B01302063E08E0138E086E08E80
:1012400068B1206881688907F0D4FFF7D1F8002ED3
:10125000F5D0A0EB0800A842F1D3032016E0204609
:101260002946424600F0C2FB00281CBF2020A06592
:10127000A06838B9002000902068C168009180689B
:1012800000900098A06D002818BF01200021C4F82C
:101290005490216501B0BDE8F08300002DE9F043D2
:1012A00081B00446006D012803D1022001B0BDE8E1
:1012B000F08301201E4615460F462065FFF798F87B
:1012C000616D814601290CD06068B0F5827F73D1D1
:1012D00004294FF0020040F0C380A168002940F0CB
:1012E000BF80002F4FF0010018BF002D00F0B88024
:1012F000002E00F0B580606D002104281CBF052081
:101300006065A165A563E687A6872763E6862068F2
:10131000A686216461640168490603D4016841F02E
:10132000400101606168731EE268B1FA81F1B3FAAD
:1013300083F3DDF8208049095B09B2F5006F41EACB
:1013400003013BD139B1216B0988C160B81C20630E
:10135000E08E0138E086012608F10105E08E10B923
:10136000E08F002866D02068816889070CD5E18E5F
:10137000012E09D141B1216B002631F8022BC26048
:101380002163E18E0139E1868168C9070AD0E18FC6
:1013900041B1C068A16B012621F8020BA163E08F67
:1013A0000138E087FFF724F8002DD7D0A0EB090023
:1013B0004045D3D3032053E0022051E039B13978BE
:1013C0000173206B01302063E08E0138E086012636
:1013D00008F10105E08E08B9E08F58B320688168F4
:1013E00089070DD5E18E012E0AD149B1216B002666
:1013F00009780173206B01302063E08E0138E086AC
:1014000020688168C9070BD0E18F49B1C068A16B22
:1014100001260870A06B0130A063E08F0138E087DF
:10142000FEF7E6FF002DD5D0A0EB09004045D1D353
:10143000032015E0204641464A4600F0D7FA18B18D
:101440002020A06501200BE0A06800284FF00000DC
:1014500006D100902168CA680092896800910099BD
:10146000012161650021216501B0BDE8F083000024
:1014700080B500F037FB80BDFEE7000002685169CF
:1014800049054FF000010CD56FF4806353612022B1
:10149000016302644164826C42F004028264C163AD
:1014A00001210846704700002DE9F04182B0044652
:1014B000C06A1D46164610F5803F0F4618BF01282A
:1014C00023D12068016841F48071016020464FF00B
:1014D000011100223346009500F06AF850B12068EF
:1014E0000068C00544BF4FF40070A064032002B040
:1014F000BDE8F081206940F20208B0F5804FC0F2EB
:10150000010808D107F0FE0018E00828D9D0206BA8
:101510001228D6D0DAE7062000EAD7102168F0308A
:10152000086108F10601204632462B4600F07AF8A1
:1015300018B1012002B0BDE8F081F8B2216832464E
:101540000861204641462B4600F06CF8002818BF81
:10155000012002B0BDE8F081F0B581B0044600681A
:101560004069400721D415460E464F1C04E000BFD9
:1015700020684069400718D42046FFF77FFF88B9EC
:10158000002FF5D0FEF734FF16B1401BB042EFD963
:1015900000202021206321646064A16C41F02001BF
:1015A000A164E063012001B0F0BD002001B0F0BDF6
:1015B0002DE9F047DDF820801D469146824601F472
:1015C0007F078EB25C1C00BFDAF80000B7F5803FE1
:1015D00014BF1830143000683040801BB0FA80F01F
:1015E000400948451BD1002CEED0FEF701FF1DB18C
:1015F000A0EB0800A842E7D900202021CAF830005B
:10160000CAF84010CAF84400DAF8481041F0200146
:10161000CAF84810CAF83C000120BDE8F087002055
:10162000BDE8F0872DE9F04104460068984643691B
:101630008FB203EA0701B94202D10020BDE8F08170
:101640004169490512D41646551C00BF35B1FEF755
:10165000CFFEFEB1A0EB0800B0421BD82068416964
:101660003940B942E9D041694905EFD5016841F4F3
:10167000007101606FF480614161002020212063CE
:1016800021646064A16C41F00401A164E063012065
:10169000BDE8F08100202021206321646064A16CFA
:1016A00041F02001F1E70000F0B581B00446006888
:1016B0004069000621D415460E464F1C04E000BFC9
:1016C00020684069000618D42046FFF7D7FE88B985
:1016D000002FF5D0FEF78CFE16B1401BB042EFD9BB
:1016E00000202021206321646064A16C41F020016E
:1016F000A164E063012001B0F0BD002001B0F0BDA5
:1017000070B582B040F210060C460546C2F20006E3
:1017100030464E2101224FF0FF33FEF737FF0028FD
:10172000F6D105F0F000204340F0080140F00C0035
:101730008DF8040044EA05108DF8051040F008010A
:1017400040F00C008DF8060040F210008DF80710F4
:101750004FF0FF36C2F2000001AA4E21042300968A
:10176000FEF7DAFF0520FEF711FD02B070BD0000A4
:1017700080B538200021FFF7C3FF02200021FFF7CA
:10178000BFFF0C200021FFF7BBFF01200021FFF766
:10179000B7FF80BD10B50178002908BF10BD441EF9
:1017A000C8B20121FFF7ACFFA17801340029F7D1BD
:1017B00010BD0000B0B50C460546FFF7D9FF28461E
:1017C000102100F009FBFFF7E5FFC0200021FFF723
:1017D00097FF2046102100F0FFFAFFF7DBFF06A07D
:1017E000FFF7D8FF281B6119B0FBF1F0102100F0C2
:1017F000F3FAFFF7CFFFB0BD2076616C3A2000000E
:10180000F0B585B0002641F21800CDE90366CDE9B8
:101810000166C4F20200016840F6000441F02001B4
:1018200001600168C4F2010401F0200100910099F7
:101830000168002241F0040101600168102501F0F7
:10184000040100910099016841F0080101600068FD
:10185000102100F00800009000982046FEF7C2FD1D
:101860000195032001AD0127049020462946CDE9CA
:101870000276FEF7B9FC0020C1F22100CDE9020694
:1018800004F5806029460197FEF7AEFC0620002192
:101890000022FFF779F80620FFF772F805B0F0BDD7
:1018A00080B540F2100045F20041C2F20000C4F2DF
:1018B000000148F2A06200234FF4804CC0F2010204
:1018C00080E80E00C0E9033CC0E90533C0E90733F6
:1018D000FEF794FD002808BF80BDFEF751FC000014
:1018E00010B540F26C0043F20001C2F20000C4F2F5
:1018F00001014FF4827200234FF0010C4FF4007E7F
:10190000182480E80E000A21C0E90333C0E905CE9F
:10191000C461C0E90833C0E90A31FFF7D1FA0028F1
:1019200008BF10BDFEF72CFCFEE70000FEE700003C
:1019300000F0070080F00703042B28BF04234FF0BA
:10194000FF3C03380CFA03F338BF00209943814071
:101950000CFA00F022EA00000843704770470000CC
:1019600081B040F20000C2F20000006844F6D3519A
:10197000C1F26201A0FB0101480A009000BF00987B
:10198000411E00280091F9D101B0704710B50446FE
:1019900040689446B0F5827F0A461AD1A168B1F535
:1019A000004F02D0B1F5806F04D121680B6823F09D
:1019B00040030B60B0F5827F0BD1A068B0F5806F5B
:1019C00007D120460121634600F022F840B90020EB
:1019D00010BD20468021634600F01AF80028F6D09A
:1019E000A06D40F02000A065032010BD10B5134687
:1019F0000A468021044600F00BF800280FBF0020A3
:101A0000A06D40F02000A06518BF032010BD0000AD
:101A10002DE9F04381B01E4690460D468146FEF703
:101A2000E7FC301A00EB0807FEF7E2FC40F2000189
:101A3000C2F200010968C1F3CB3179430091D9F8B2
:101A4000001089682940A94219D1064608F101040D
:101A500006E000BFD9F8000080682840A8420ED1F7
:101A6000002CF7D0FEF7C4FC801BB8420BD20098C4
:101A70000099002808BF0746481E0090EAE70020AA
:101A800001B0BDE8F083D9E900014268B1F5827F79
:101A900022F0E00242600BD1D9F80810B1F5004FF6
:101AA00002D0B1F5806F03D1016821F040010160DF
:101AB000D9F82810B1F5005F07D1016821F4005171
:101AC0000160016841F4005101600120C9F854002F
:101AD0000020C9F85000032001B0BDE8F0830000E9
:101AE00070470000B0B501380024B4EB106F1CBF84
:101AF0000120B0BD4EF21005CEF2000568604FF037
:101B0000FF300F2100F056F80720AC602860204617
:101B1000B0BD000080B5FEF7C7FE80BD70B590B0C7
:101B200006AC20462821FEF704FB012006900A900F
:101B30004FF4E01000254FF4803102260F9020462C
:101B40000595CDE90355CDE90155CDE90715CDE959
:101B50000D61FFF72FF878B90F20CDE901064FF49A
:101B60008060CDE9040501A802210395FEF720FF5E
:101B7000002804BF10B070BDFEF702FB70470000E4
:101B8000FEE70000002848BF704700F01F01012257
:101B900002FA01F14EF200124009CEF2000242F8C0
:101BA000201070474EF60C50CEF200000068C0F3D3
:101BB000022070474EF6145300F00F02CEF20003DD
:101BC00009011A4400F16043B0F1FF3FC8BF03F5BB
:101BD00064421170704700004EF60C51CEF20001C5
:101BE0000A684FF6FF031A4060F30A2242F0806051
:101BF00040F0FD700860704770B540F60004C4F214
:101C0000010405462046102100220026FEF7EAFBCB
:101C10000520FEF7BBFA022D08BFA126002D08BF44
:101C2000812600200121324600F096F83220FEF78E
:101C3000ADFA204610210122FEF7D4FB70BD000052
:101C40002DE9F04182B040F60008C4F201080024FA
:101C50004046102100228DF80740FEF7C3FB052007
:101C6000FEF794FA40F26C06C2F200060DF1070787
:101C7000002500BF3046394601220323FFF7B0F9A3
:101C80009DF80700022C40EA052504F10104F1D378
:101C90000520FEF77BFA404610210122FEF7A2FB49
:101CA000284602B0BDE8F08110B50520FEF76EFAB7
:101CB00040F60004C4F20104204610210022FEF781
:101CC00091FB0520FEF762FA00F016F86420FEF79B
:101CD0005DFA41F20002C8F200020020032100F088
:101CE0003BF80520FEF752FA00F014F820461021C8
:101CF0000122FEF777FB10BD80B540F26C0040F288
:101D00000401C2F20000C2F2000101220323FFF726
:101D10000BFA80BD10B540F60004C4F20104204661
:101D200010210022FEF75EFB0520FEF72FFA40F29D
:101D30006C0040F20501C2F20000C2F20001012273
:101D40000323FFF7F1F90520FEF720FA20461021C2
:101D50000122FEF747FB10BD2DE9F04182B00D4690
:101D600000218DF807108DF8061040F20601C2F22E
:101D70000001097845EA800008438DF8070001203A
:101D80001446FEF703FA40F26C00C2F200000DF1B7
:101D9000070101220323FFF7C7F9B5B140F26C0830
:101DA000EE00C2F200080DF1060700BF24FA06F0AB
:101DB0008DF806004046394601220323FFF7B4F9A7
:101DC000013D2806A6F10806F0D10520FEF7DEF950
:101DD00002B0BDE8F0810000B0B5E0B140F2C80E3D
:101DE0001F220FF23C0CC2F2000E00BFB0FBF1F359
:101DF0000EEB020503FB110488421CF8044005F8B1
:101E0000014CA2F1010403D3022A22461846EDD167
:101E10000EEB0400B0BD01A0B0BD00BF300000005B
:101E20003031323334353637383961626364656650
:101E300000000000FEF746FDFFF770FEFFF7E0FC34
:101E4000FFF72EFDFFF74CFDFFF792FC23A0FFF7F5
:101E5000A1FCC02000214FF00009FFF751FC21A098
:101E6000FFF798FC4FF47A70FEF790F9FFF780FCCB
:101E7000FFF71AFF40F2E8054CF6CD48C2F2000524
:101E8000CCF6CC480020FFF7B7FE0B24287808B327
:101E9000FFF7D6FE074485F80090FFF73BFF013CB3
:101EA000F4D10220FFF7A8FE0B2400BF287898B1D8
:101EB000FFF7C6FE064485F80090FFF72BFF013CB4
:101EC000F4D1A7FB0801A6FB0802C808D108FFF758
:101ED00071FCD7E7FEE700BFFEE700BF20204865A2
:101EE0006C6C6F0020202020706564696B0000001E
:101EF00002E008C8121F08C1002AFAD170477047D3
:101F0000002001E001C1121F002AFBD17047000030
:101F10000000000000000102030406070809000099
:101F20000000010203040000481F00080000002018
:101F300010000000F01E0008581F000810000020CC
:101F4000E0040000001F00080024F4000608400020
:081F5000010000001000000078
:04000005080000ED02
:00000001FF
